:100000000C9446000C9465000C9465000C946500FB
:100010000C9465000C9450020C9409020C94650039
:100020000C9465000C9465000C9465000C946500BC
:100030000C9465000C9465000C9465000C946500AC
:100040000C9406110C9465000C9465000C946500EA
:100050000C9465000C9465000C9465000C9465008C
:100060000C9465000C9465000C9465000C9465007C
:100070000C9465000C9465000C9465000C9465006C
:100080000C9465000C9465000C94650011241FBE4F
:10009000CFEFD0E1DEBFCDBF12E0A0E0B1E0ECE6F3
:1000A000F3E200E00BBF02C007900D92AC31B10744
:1000B000D9F716E0ACE1B2E001C01D92A939B10751
:1000C000E1F70E94BB010C94B4110C940000369A25
:1000D000349BFECF24B145B1942F80E030E0282B33
:1000E000392BC90108952F923F924F925F926F92E0
:1000F0007F928F929F92AF92BF92CF92DF92EF92B8
:10010000FF920F931F93DF93CF93CDB7DEB7649722
:100110000FB6F894DEBF0FBECDBF52E0C52ED12C76
:10012000CC0EDD1ED601E0E0F1E083E101900D92FE
:100130008150E1F78FEF84BB8FE080936400EA8009
:100140003E010894611C711C48E0242E30E4832E8B
:100150003FE1932E24E0322E90EEA92E9EE2B92E9E
:1001600082E0482E5524539480911F0290912002E2
:1001700060E070E0A3010E94CD0A809121021091FD
:10018000210200912102F090210280911F029091A2
:1001900020020E942E0AE5BA20926500C401019750
:1001A000F1F7812F64E60E9486116AE00E948611B1
:1001B000F601E90FF11D808185BB30926500C50114
:1001C0000197F1F7802F0E9486110E948611F60197
:1001D000E90FF11D808185BB40926500C401019744
:1001E000F1F78F2D0E948611F601E90FF11D808134
:1001F00085BB50926500C5010197F1F7B5CF0F930C
:100200001F93DF93CF930F92CDB7DEB78E010F5FB1
:100210001F4F809124029091250260E070E0A801B8
:100220000E94F70BFC01808180932102F2CFCF92D4
:10023000DF92EF92FF920F931F93DF93CF9300D043
:100240000F92CDB7DEB717B887E886B980E090E0A7
:100250000E940705909325028093240280E0BE014E
:100260006F5F7F4F0E9441059093200280931F0291
:100270008FEF8ABBE2E0CE2ED12CCC0EDD1E70E1DA
:10028000F72E6AEAE62E00EA1FE00E9467009B83D1
:100290008A838091240290912502B6010E94DD0B91
:1002A000F7BA8A819B8187569340BCF020E030E00A
:1002B000F8BAC8010197F1F718BAC8010197F1F728
:1002C0002F5F3F4F2A30310599F780E060E041E031
:1002D00020E030E00E941007D8CFEBBA80E060E069
:1002E00041E020E030E00E941007CFCF0F931F9332
:1002F000DF93CF930F92CDB7DEB78091220290911A
:10030000230263E043E820E030E08E010F5F1F4FDF
:100310000E944D0D80911E028130D9F080911E0205
:10032000823031F00F90CF91DF911F910F9108959E
:100330001BBA28EE33E040E951E0CA010197F1F71A
:1003400021503040D1F70F90CF91DF911F910F9145
:1003500008958FEF8BBB28EE33E040E951E0CA01EE
:100360000197F1F721503040D1F70F90CF91DF91F5
:100370001F910F910895DF93CF930F92CDB7DEB702
:100380000E94B80FF89487E083BF81E087BF84E6BE
:1003900082BF789480E389BF8FB780688FBF8FEC6E
:1003A00082B98AE08ABF80E0BE016F5F7F4F0E9402
:1003B0001A04909323028093220287E191E060E087
:1003C00070E045EA52E021E00E943E0886E791E0B5
:1003D00060E070E045E253E022E00E943E088FEFCB
:1003E00090E060E070E045EA53E023E00E943E08C0
:1003F00083E790E060E070E045E254E024E00E9492
:100400003E080E94380F80E090E00F90CF91DF917E
:1004100008951F920F920FB60F920BB60F921124F0
:100420002F933F934F935F936F937F938F939F93FC
:10043000AF93BF93EF93FF93DF93CF930F92CDB71B
:10044000DEB715BA28EE33E040E951E0CA01019762
:10045000F1F721503040D1F782E080931E02809165
:1004600022029091230262E041E09E012F5F3F4F04
:100470000E94B90C0F90CF91DF91FF91EF91BF9146
:10048000AF919F918F917F916F915F914F913F912C
:100490002F910F900BBE0F900FBE0F901F901895CD
:1004A0001F920F920FB60F920BB60F9211242F933B
:1004B0003F934F935F936F937F938F939F93AF93EC
:1004C000BF93EF93FF93DF93CF930F92CDB7DEB738
:1004D00015BA28EE33E040E951E0CA010197F1F77F
:1004E00021503040D1F781E080931E02809122029A
:1004F0009091230261E041E09E012F5F3F4F0E94F7
:10050000B90C0F90CF91DF91FF91EF91BF91AF9117
:100510009F918F917F916F915F914F913F912F911B
:100520000F900BBE0F900FBE0F901F901895FA0101
:1005300080839293129212921292129212921292BB
:10054000129212921292129212921292129212928B
:10055000129212921292129212921292129212927B
:1005600012921292629372931292129212921292B9
:1005700012921292129280E882933197CF010895DD
:100580000895089508950895089508950895089583
:10059000089580912704813009F008958091EA043C
:1005A0008F3FD9F38F5F8093EA04089580912704E9
:1005B000813009F00895F894809126048F3F19F056
:1005C0008F5F80932604789408958CEF90E00895CF
:1005D000FF920F931F93CF93DF93EC018B01F42EC7
:1005E0003981E32FF0E0E55EFE4F2081422F50E09D
:1005F000FA01ED5EFE4F7081DC01A40FB51F169667
:100600009C911697E92FF0E0E55EFE4F8081E82F80
:10061000F0E0ED5EFE4F6081220F220F220F280FC7
:10062000862F8095892316968C93882321F4872F13
:10063000809538233983E22FF0E0EE0FFF1FE15859
:10064000F94F0190F081E02D1486138617821682EF
:10065000118700878F2D809595858923858788232D
:1006600059F48091E404872B8093E404FA01EB5160
:10067000FB4F8081682B6083822FDF91CF911F9188
:100680000F91FF900895CF93DF93EC01A091EB04BD
:10069000B091EC0417969C938E93169750968C917C
:1006A0005097482F50E051963C915197FA01EB51E9
:1006B000FB4F832F80959081892380838823A9F421
:1006C00052962C91922F90958091E40489238093E7
:1006D000E404FE01E40FF51F8681832B8683898164
:1006E000822B8983DF91CF91089552962C91F1CF7F
:1006F000CF93DF93EC01A091EB04B091EC04509602
:100700008C915097FE01E80FF11D51968C915197F5
:100710008095968189238683882339F452969C910B
:10072000529790958981892389831D961C921D97E4
:1007300017961C921E921697DF91CF910895FC0197
:100740001182168217820895DC01962FF90147FD68
:100750002EC020E01082F894413079F1413050F001
:10076000423009F438C04330A9F0789487E9808397
:1007700080E0089513966C911397862F80958923B6
:10078000891709F44EC088E9808313966C91862FEF
:100790007894089513966C911397892F862349F5C1
:1007A00088E9808313966C91862F789408954F770B
:1007B00021E01082F894413089F613966C911397DA
:1007C000862F80958923E9F488E9808313966C91BC
:1007D000862F7894089513966C911397892F86230A
:1007E0008917B1F088E9808313966C91862F7894ED
:1007F00008952130C9F68095862313968C93682F2F
:10080000D3CF213029F7862B13968C93682FE0CF16
:10081000213061F7892F8095862313968C93682F5A
:10082000E5CF213009F0B3CF862F892B13968C9317
:10083000682FADCF282FDB018091EA048823D9F4FB
:10084000F894E0917C06F0917D06309779F08181F3
:10085000928190937D0680937C0685E0808323833C
:100860001282118278941C92CF01089578948AE9BB
:100870008C93CF0108958DE88C93E0E0F0E0F4CF05
:10088000FC01DB01F894838178941C920895EF9227
:10089000FF920F931F93CF93DF937C01FB01A091F5
:1008A000EB04B091EC041D968C911D9780621D960F
:1008B0008C931D971C961C930E931B974087218742
:1008C000B583A483E70189819A8191838083138210
:1008D0001282F782E68289819A81009719F0EC01F1
:1008E0007B836A83E701FA83E9835096EC91509702
:1008F000F0E0EB51FB4F51968C9151978095908190
:1009000089238083882341F452969C91909580910D
:10091000E40489238093E404DF91CF911F910F9128
:10092000FF90EF90089510922D0481E394E090934E
:100930002F0480932E0404971092330410923204F3
:1009400090937D0680937C060895CF93DF93FC01FE
:10095000A281B381C081D181109751F01196DC93AF
:10096000CE93209711F0BB83AA83DF91CF91089596
:100970000680F781E02DD283C1832097B1F31B82DB
:100980001A82DF91CF9108951F93CF93DF93EC01EB
:10099000AC81BD811C961C921E921B971A966C937B
:1009A0001A971D968C911D978F7D1D968C931D9780
:1009B0008823E1F48091E40452969C915297892B0C
:1009C0008093E4045096EC915097F0E0EB51FB4F8C
:1009D000808151969C91892B808311E0CE010E94E9
:1009E000A504812FDF91CF911F91089510E0CE01D2
:1009F0000E94A504812FDF91CF911F910895FC01E2
:100A0000F8948481958115821482789408959C01CC
:100A10008091EA048823D9F4F894E091E704F091F6
:100A2000E804309731F0848195819093E8048093B5
:100A3000E7047894309749F081E080831382128232
:100A400035832483118216821782CF010895E0E056
:100A5000F0E0CF010895FC01DB01F8948181149648
:100A60008C931497868112968C9312978781139694
:100A70008C931397848195818D939C93789480E0D7
:100A80000895CF93DF93982FEB018091EA04882398
:100A900009F042C0F894292F30E0D901AA0FBB1FFA
:100AA000A158B94F8D919C911197892B19F581E02F
:100AB00090E011969C938E93E091E704F091E80406
:100AC000309709F1848195819093E8048093E7043D
:100AD000789484E08083922F88278F6F938382831A
:100AE000158214821182168217821882CF01DF913B
:100AF000CF910895789488E28883E0E0F0E0CF0118
:100B0000DF91CF9108951D921C92789484E08883A0
:100B1000CF01DF91CF9108958DE88883E0E0F0E088
:100B2000E5CF9C018091EA04882309F052C0F89433
:100B3000E091E704F091E804309731F084819581E9
:100B40009093E8048093E70478943097A9F1F8949F
:100B5000A091E204B091E304109781F18D919C91F2
:100B600011979093E3048093E204789413963C9356
:100B70002E931297CB01880F991F820F931F159602
:100B80009C938E93149717963C932E9316971996D1
:100B90003C932E9318971B967C936E931A971D96F1
:100BA0001C921E921C9782E0808313821282B5836E
:100BB000A483118216821782CF0108958091E704E1
:100BC0009091E80495838483F093E804E093E7042C
:100BD0007894E0E0F0E0CF01089582ED94E0909306
:100BE000C5048093C4040E971092D3041092D204CB
:100BF0009093E3048093E20408959C018091EA04B9
:100C00008823D9F4F894E091E704F091E804309750
:100C100031F0848195819093E8048093E70478947F
:100C2000309749F083E080833383228315821482D6
:100C3000118216821782CF010895E0E0F0E0CF0123
:100C400008951F93CF93DF93182FF894C091C00499
:100C5000D091C104209709F456C08A819B8190935A
:100C6000C1048093C0047894798368831E871D86AD
:100C70001C861B86E12FE695E695E695E88BF0E06D
:100C8000ED5EFE4F80818A8BE12FE770EF87F0E009
:100C9000ED5EFE4F8081898B1F821E821986188629
:100CA000CE010E94C802CE010E94C002F894E12F3A
:100CB000F0E0EE0FFF1FE158F94FD183C083E091C0
:100CC0003604F0913704FB83EA831D821C8230973F
:100CD00011F0D583C483D0933704C0933604809138
:100CE000E4049A89892B8093E404E889F0E0EB51CD
:100CF000FB4F80819989892B8083789480E0DF91F4
:100D0000CF911F910895789486E4DF91CF911F9140
:100D10000895F8948091280490912904A0912A04C0
:100D2000B0912B040196A11DB11D809328049093CE
:100D30002904A0932A04B0932B0478940E94C7023C
:100D4000E8CFF8948091EA04882309F03FC08091AD
:100D500026048823D9F5E091E404F0E0E55EFE4F37
:100D60008081E82FF0E0EB51FB4FE081F0E0E55EA1
:100D7000FE4F982F990F990F990F8081980F90939C
:100D80002C0480913504981709F1E92FF0E0EE0F5B
:100D9000FF1FE158F94F808191819093E104809386
:100DA000E0048091B8049091B904A091BA04B09184
:100DB000BB040196A11DB11D8093B8049093B904A2
:100DC000A093BA04B093BB040E946C107894089569
:100DD0009C01009721F1F894A091EB04B091EC04F0
:100DE0005096EC915097F0E0EB51FB4F51968C915F
:100DF00051978095908189238083882349F4529666
:100E00009C91529790958091E40489238093E40407
:100E10001C963C932E931B9778940E94A1060895EC
:100E20008F929F92AF92BF92CF92DF92EF92FF92FA
:100E30000F931F93CF93DF93882E162F942E882322
:100E4000C9F01C3300F58BE3891590F093E0283E40
:100E50003907D8F083E5DF91CF911F910F91FF9073
:100E6000EF90DF90CF90BF90AF909F908F900895BC
:100E700082E5F1CF662329F7442329F721153105AF
:100E800029F784E5E8CF81E5E6CFB90180E090E07D
:100E900024E630E040E050E00E9467116C507E4F45
:100EA0008F4F9F4F28EE33E040E050E00E949211B8
:100EB00059016A01612F70E080E090E02CE330E09E
:100EC00040E050E00E9467117B018C01E90CF11CAD
:100ED000011D111D682D70E080E090E020E13EE0F2
:100EE00040E050E00E946711E60EF71E081F191F30
:100EF000C801B70124E630E040E050E00E946711ED
:100F0000A60EB71EC81ED91E760100271127E701BD
:100F10008FEF9FEFA0E0B0E0A822B922CA22DB2227
:100F2000C5010E94E806EF2851F080E090E80E9499
:100F3000E80680E090E80E94E8062197B1F780E09B
:100F40008ACFDF92EF92FF920F931F9380917E06DC
:100F5000882341F488EC90E00E94E80680917E06A8
:100F60008823C1F36091BC047091BD048091BE04DC
:100F70009091BF0424E630E040E050E00E949211DE
:100F8000C901DA017C018D01F4E6DF2E10C0A80151
:100F900097010E9492118D2D821B87FD44C0809382
:100FA000C2040E94C30284E690E00E94E806F8941E
:100FB0008091280490912904A0912A04B0912B04D7
:100FC0008093950690939606A0939706B093980603
:100FD000609128047091290480912A0490912B0437
:100FE000109228041092290410922A0410922B04C3
:100FF0007894E114F1040105110549F61092C20438
:101000006091BC047091BD048091BE049091BF04B6
:1010100024E630E040E050E00E949211C901DA017C
:101020007C018D01BECF1092C204BBCF82E090E064
:101030000E94E806F8941092280410922904109255
:101040002A0410922B04789484E690E00E94E8062B
:10105000F8948091280490912904A0912A04B091D9
:101060002B048093BC049093BD04A093BE04B09362
:10107000BF0481E080937E0678940895AF92BF927A
:10108000CF92DF92EF92FF920F931F93CF93DF9354
:10109000FC01122FF894C22FD0E0CC0FDD1FC158F5
:1010A000D94F88819981892B71F0789418E2812F2A
:1010B000DF91CF911F910F91FF90EF90DF90CF9034
:1010C000BF90AF90089581E090E0998388837894F1
:1010D000CF0120E030E00E949702BC01812F40E068
:1010E00050E020E030E0EE24FF248701CC24DD2412
:1010F000AA24BB240E942106182F882371F4F89497
:101100008091C3048F5F8093C304789480912704F7
:10111000813069F60E94A106CACFF894198218821C
:101120007894C5CFFC01F8948181882379F4828179
:1011300093812FEF8F3F920731F001969383828343
:10114000789480E00895789482E30895CF0160E078
:1011500070E041E00E94E80278940E94A10680E0DD
:1011600008950F931F93CF93DF93EC018A01809131
:10117000EA04882381F4F8948A819B81009799F08E
:1011800001979B838A837894FA011082DF91CF9133
:101190001F910F91089582E0FA018083DF91CF9132
:1011A0001F910F910895E091EB04F091EC04858577
:1011B0008160858774876387CE010E94430378949A
:1011C0000E94A106F894E091EB04F091EC0485856F
:1011D00080FD0AC0178216827894F8011082DF9190
:1011E000CF911F910F910895CE010E9478037894BA
:1011F0008AE0F8018083CACF0F931F93CF93DF93C8
:10120000EC018B01F8948981882399F040FF46C056
:10121000CE01B80144E00E94E80289818823C1F729
:1012200078940E94A10680E0DF91CF911F910F91E9
:101230000895AC81BD811C962D913C911D971A9605
:101240008D919C911B972817390738F078948EE17F
:10125000DF91CF911F910F91089541FF24C01896FF
:10126000ED91FC91199712968D919C911397E81727
:10127000F90799F132971996FC93EE931897118319
:1012800000832F5F3F4F1D963C932E931C977894BD
:1012900080E0DF91CF911F910F910895CE0144E03E
:1012A0000E94E802BDCF1696ED91FC9117976193CD
:1012B00071931796FC93EE93169714968D919C91CB
:1012C0001597E817F907E9F612968D919C911397F7
:1012D00017969C938E931697D4CF1496ED91FC910C
:1012E00015971996FC93EE931897C4CFFC01F894C8
:1012F0008181882351F5A481B5811C962D913C9163
:101300001D971A968D919C911B972817390718F0F5
:1013100078948EE108951696ED91FC91179761935C
:1013200071931796FC93EE9316972F5F3F4F1D9680
:101330003C932E931C9714968D919C911597E817CA
:10134000F90761F0789480E00895CF0144E00E94AD
:10135000E80278940E94A10680E0089512968D918B
:101360009C91139717969C938E931697EBCFEF92C1
:10137000FF920F931F93CF93DF938C017A0180919B
:10138000EA04882309F05CC0F894F801A481B581CF
:101390001C968D919C911D97009709F11896ED91DF
:1013A000FC911997C191D1911996FC93EE931897DE
:1013B00001971D969C938E931C9714968D919C91EA
:1013C0001597E817F90799F17894F7011082CE0183
:1013D000DF91CF911F910F91FF90EF900895E091D1
:1013E000EB04F091EC0485858460858774876387BE
:1013F000C8010E94430378940E94A106F894E091EA
:10140000EB04F091EC04C085D1852097F9F01186AA
:1014100010861586178216827894F7011082CE0105
:10142000DF91CF911F910F91FF90EF900895129649
:101430008D919C91139719969C938E931897C4CF76
:1014400082E0FA018083C0E0D0E0C1CFC8010E94F1
:10145000780378948AE0F7018083B9CFCF93DF9344
:10146000EC018091EA048823A1F4F8943A814B813D
:10147000A091EB04B091EC041E968C911E978417FA
:1014800061F0381709F454C0789488E7DF91CF9160
:10149000089585E0DF91CF9108955096EC91509793
:1014A000F0E0EB51FB4F51968C91519780959081D4
:1014B00089238083882349F452969C915297909572
:1014C0008091E40489238093E4041E963C931E9744
:1014D000E32FE695E695E6955096EC935097F0E06D
:1014E000ED5EFE4F208152962C935297E32FE770CA
:1014F0001F96EC931F97F0E0ED5EFE4F90815196A2
:101500009C9351978091E404822B8093E40450963D
:10151000EC915097F0E0EB51FB4F8081982B90833A
:10152000E32FF0E0EE0FFF1FE158F94FB183A083E6
:10153000E42FF0E0EE0FFF1FE158F94F81E090E05B
:10154000918380838981882361F48A819B818F6F55
:101550009B838A831D821C82789480E0DF91CF91E7
:101560000895CE0160E070E040E10E94E802E82FBB
:10157000F0E08A819B8180708E2B9F2B9B838A83D6
:10158000EE0FFF1FE158F94F808191819D838C837D
:1015900078940E94A10680E079CF0F931F93CF9398
:1015A000DF93EC018A018091EA048823A1F5F89485
:1015B0002A813B812F3F09F460C0432FAC81BD815C
:1015C0001E968C911E97831709F452C0E091EB048C
:1015D000F091EC048685821708F467C085858061E8
:1015E000858774876387CE010E94430378940E94A5
:1015F000A106F894E091EB04F091EC04858584FD5C
:101600009EC0178216827894F8011082DF91CF91E4
:101610001F910F91089582E0FA018083DF91CF91AD
:101620001F910F9108951E963C931E97E32FE69508
:10163000E695E6955096EC935097F0E0ED5EFE4F00
:10164000808152968C935297E32FE7701F96EC930C
:101650001F97F0E0ED5EFE4F808151968C9351977D
:10166000E42FF0E0EE0FFF1FE158F94FB183A083A4
:10167000E091EB04F091EC04B1CFC90180709B8341
:101680008A83E091EB04F091EC04268530E0282B6E
:10169000392B3B832A83FD83EC837894FA011082F3
:1016A000DF91CF911F910F91089550968C91509793
:1016B000E82FF0E0EB51FB4F508151969C915197F0
:1016C000852F892309F4AFCF892F809585238083C7
:1016D000882349F452969C91529790958091E40406
:1016E00089238093E4041E964C931E97E42FE6957D
:1016F000E695E6955096EC935097F0E0ED5EFE4F40
:10170000208152962C935297E42FE7701F96EC930A
:101710001F97F0E0ED5EFE4F908151969C9351979C
:101720008091E404822B8093E4045096EC915097CE
:10173000F0E0EB51FB4F8081982B908391CFCE014D
:101740000E94780378948AE0F8018083DF91CF913A
:101750001F910F9108950F931F93CF93DF93EC0187
:101760008B01F8948981882399F040FF1CC0CE0139
:10177000B80142E00E94E80289818823C1F7789489
:101780000E94A10680E0DF91CF911F910F910895F3
:101790008C819D81892B61F0789484E1DF91CF91D8
:1017A0001F910F910895CE0142E00E94E802E7CF19
:1017B0007D836C83789480E0E6CFFC01F89481818E
:1017C000882339F484819581892B61F0789484E1B0
:1017D0000895CF0142E00E94E80278940E94A10699
:1017E00080E0089575836483789480E00895EF9293
:1017F000FF920F931F93CF93DF938C017A01809117
:10180000EA048823A1F5F894F801C481D5812097D2
:1018100069F0158214827894FA011082CE01DF916A
:10182000CF911F910F91FF90EF900895E091EB04FD
:10183000F091EC0485858260858774876387C80191
:101840000E94430378940E94A106F894E091EB046F
:10185000F091EC04C085D185209779F0118610862F
:101860001586178216827894F7011082D7CF82E00E
:10187000FA018083C0E0D0E0D1CFC8010E94780394
:1018800078948AE0F7018083C9CFFF920F931F936A
:10189000CF93DF93EC018A018091EA04882331F52C
:1018A000F894F980FF20E9F4662371F4FF2009F42D
:1018B0004FC0789488E0F8018083CE01DF91CF910A
:1018C0001F910F91FF9008956130D1F0789487E0D7
:1018D000F8018083CE01DF91CF911F910F91FF908E
:1018E0000895FF24F394662309F3EECF8CE8FA0100
:1018F0008083CE01DF91CF911F910F91FF900895CA
:10190000FF2049F0CE0160E070E042E00E94E80272
:1019100089818823B9F718828091E7049091E804BF
:101920009D838C83D093E804C093E7047894F1E01E
:10193000FF1659F0F8011082C0E0D0E0CE01DF912F
:10194000CF911F910F91FF9008950E94A106F2CFB1
:1019500018828091E7049091E8049D838C83D09352
:10196000E804C093E7047894F8011082C0E0D0E066
:10197000C0CFCF92DF92EF92FF920F931F93DF932E
:10198000CF930F92CDB7DEB78C017901F894442341
:1019900009F071C06095FC01838186238383F8017F
:1019A000C180D280C114D10409F475C0198210C05D
:1019B000F6016085F8018381809586236817C9F058
:1019C000F601808191819C0169012115310501F1A8
:1019D000F6018185813089F1813050F3823009F43C
:1019E0003BC0833069F7F6016085F8018381682385
:1019F00039F3C6010E94C404813011F7F1E0F98384
:101A0000F601808191819C0169012115310501F761
:101A10007894F981F13009F43BC0F894F80183819E
:101A20007894F70110820F90CF91DF911F910F9161
:101A3000FF90EF90DF90CF900895F801638160955B
:101A4000F6018085682309F4BBCFC6010E94C40457
:101A5000813009F0B5CFD2CFF6016085F8018381DE
:101A60008623681709F0ACCFC6010E94C4048130F8
:101A700009F0A6CFC3CF413031F0789489E9F9015C
:101A8000808380E0D0CFFC018381862B838387CF46
:101A90000E94A106C2CF1982BBCF8F929F92AF92B4
:101AA000BF92DF92EF92FF920F931F93DF93CF933A
:101AB000CDB7DEB72B970FB6F894DEBF0FBECDBF04
:101AC0007C01562FD42EF90158018091EA04882315
:101AD000C1F447FD3EC01B86F89491E0D91609F485
:101AE00041C0D91620F1A2E0DA1609F45CC0B3E0D7
:101AF000DB1609F448C0789487E9F501808380E01B
:101B000004C082E0D8018C9380E02B960FB6F89445
:101B1000DEBF0FBECDBFCF91DF911F910F91FF9020
:101B2000EF90DF90BF90AF909F908F900895D70176
:101B300013964C91842F80958523851709F071C0E9
:101B4000BB85B13009F486C0842F7894D5011C92EE
:101B5000DCCFBFE7DB2281E08B87F89491E0D916D8
:101B600009F0BFCFD70113964C91642F6095652380
:101B700009F496C0BB85B13009F466C0842F78940F
:101B8000D5011C92C2CFD70113964C91852F842387
:101B900009F479C0BB85B13009F450C0842F789422
:101BA000D5011C92B2CFD70113964C91852F842377
:101BB000851749F4BB85B13009F452C0842F78945D
:101BC000D5011C92A2CFC7014E010894811C911C23
:101BD000B401452F22E08F010E94470478940E94AF
:101BE000A106F894E091EB04F091EC04858585FD65
:101BF0000AC0BB85B130D9F1F7014381842F7894B5
:101C0000F501108282CFC4010E94A504E091EB048B
:101C1000F091EC04158678948AE0D5018C9380E0ED
:101C200074CFC7014E010894811C911CB401452F4B
:101C300020E08F010E9447047894D1CF80958423BF
:101C4000F7018383482FAACF862F842BF701838344
:101C5000482F94CF842F852BF7018383482F74CF8F
:101C6000852F80958423F7018383482FA7CF81E0B8
:101C70008D1518F1D70113964C9113978285482B37
:101C800013964C93BBCFC7014E010894811C911C45
:101C9000B401452F23E08F010E94470478949FCF21
:101CA000C7014E010894811C911CB401452F21E00D
:101CB0008F010E944704789492CF93E09D1520F401
:101CC000D70113964C919ACF82858095F701438175
:101CD0004823438393CFDF92EF92FF920F931F939A
:101CE000CF93DF938C017A018091EA048823D1F5A8
:101CF000F894F80121813281DD242115310511F09C
:101D0000DD24D394662339F4DD20D9F1789488E07A
:101D1000F70180832AC0613061F0789487E0F70191
:101D2000808323C0CE0160E00E94C4048881998131
:101D30009C01E90121153105A9F7F8011082809174
:101D40007C0690917D069283818310937D0600939B
:101D50007C067894F1E0DF1689F0F701108200E04C
:101D600010E003C08CE8FA018083C801DF91CF91B5
:101D70001F910F91FF90EF90DF9008950E94A106B0
:101D8000ECCFF801108280917C0690917D069283C1
:101D9000818310937D0600937C067894F70110826E
:101DA00000E010E0E2CF80912704813009F008952F
:101DB000F89480912604882359F08150809326045A
:101DC000882321F48091EA04882321F078940895EF
:101DD0007894089578940E94A10608950E94C40200
:101DE00080912704813009F00895A0913604B091C4
:101DF00037041E968C911E978A30B1F32091E4042B
:101E000041E050E01AC052968C915297282B509680
:101E1000EC915097F0E0EB51FB4F808151969C91F3
:101E20005197892B808312960D90BC91A02D7894A8
:101E30001E968C911E978A30C1F0F8941B968D9156
:101E40009C911C97009779F301971C969C938E9315
:101E50001B97892B41F71D968C911D9783FFD3CF3C
:101E60001C965C934E931B97DECF2093E404089559
:101E70008091270481110895E091E404F0E0E55E8B
:101E8000FE4FA081EA2FF0E0EB51FB4FE081F0E044
:101E9000E55EFE4FAA0FAA0FAA0F8081A80FA0939C
:101EA0002C04A0933504B0E0AA0FBB1FA158B94F72
:101EB0008D919C919093E1048093E0049093EC04C5
:101EC0008093EB040E94381008958091270481309C
:101ED00009F00895F8948091EA04882339F081503C
:101EE0008093EA04882311F0789408958091260461
:101EF0008823D1F7E091E404F0E0E55EFE4F8081B5
:101F00008093E904E82FF0E0EB51FB4FE081F0E033
:101F1000E55EFE4F982F990F990F990F8081980FCA
:101F200090932C04809135049817F1F2E92FF0E09A
:101F3000EE0FFF1FE158F94F808191819093E104EA
:101F40008093E0048091B8049091B904A091BA0400
:101F5000B091BB040196A11DB11D8093B80490936C
:101F6000B904A093BA04B093BB040E94CF10BCCFB5
:101F70000E94C5021092EA04109226041092C30433
:101F8000109227041092B8041092B9041092BA0467
:101F90001092BB04109228041092290410922A0473
:101FA00010922B041092E4041092E5041092E604BF
:101FB0001092350410922C041092E1041092E00467
:101FC0001092EC041092EB04109237041092360435
:101FD000EFE7F6E01192119226E0E539F207D1F72A
:101FE00088E995E0FC01719791838083439626E010
:101FF0008C379207B9F710926C0610926B0685E841
:1020000095E09093C1048093C00410926D0585E71C
:1020100095E090937205809371051092750508966E
:1020200090937A0580937905409710927D051092E0
:102030008205109281059093E8048093E7040E9442
:1020400093040E94ED0589E896E060E070E04CE6BC
:1020500055E02AE00E943E0881EA97E060E070E0E7
:1020600047EB54E029E00E943E080E94C602089512
:102070000E94C20200912704039500932704E09177
:10208000E004F091E104C191CDBFD191DEBF0F9189
:102090000FBF0F910BBFFF91EF91DF91CF91BF91D8
:1020A000AF919F918F917F916F915F914F913F91F0
:1020B0002F911F910F91FF90EF90DF90CF90BF90E5
:1020C000AF909F908F907F906F905F904F903F90D8
:1020D0002F901F900F9008950F921F922F923F9272
:1020E0004F925F926F927F928F929F92AF92BF9228
:1020F000CF92DF92EF92FF920F931F932F933F9314
:102100004F935F936F937F938F939F93AF93BF93FF
:10211000CF93DF93EF93FF930BB70F930FB70F930B
:10212000E091EB04F091EC04CDB7C193DEB7D1930D
:102130000E94C20200912C0400933504E091E00457
:10214000F091E104E093EB04F093EC04C191CDBF76
:10215000D191DEBF0F910FBF0F910BBFFF91EF9198
:10216000DF91CF91BF91AF919F918F917F916F91AF
:102170005F914F913F912F911F910F91FF90EF90A1
:10218000DF90CF90BF90AF909F908F907F906F9097
:102190005F904F903F902F901F900F9008950E9456
:1021A000C20200912C0400933504E091E004F09108
:1021B000E104E093EB04F093EC04C191CDBFD19125
:1021C000DEBF0F910FBF0F910BBFFF91EF91DF911A
:1021D000CF91BF91AF919F918F917F916F915F91BF
:1021E0004F913F912F911F910F91FF90EF90DF90B2
:1021F000CF90BF90AF909F908F907F906F905F90A7
:102200004F903F902F901F900F9008950F921F9224
:102210002F923F924F925F926F927F928F929F92F6
:10222000AF92BF92CF92DF92EF92FF920F931F93E4
:102230002F933F934F935F936F937F938F939F93CE
:10224000AF93BF93CF93DF93EF93FF930BB70F93AE
:102250000FB700680F930091EA0403950093EA0416
:10226000013041F4CDB7DEB7E091EB04F091EC041E
:10227000C193D19304E602BF78940E94EE0E000051
:102280000E94650F0F910FBF0F910BBFFF91EF9150
:10229000DF91CF91BF91AF919F918F917F916F917E
:1022A0005F914F913F912F911F910F91FF90EF9070
:1022B000DF90CF90BF90AF909F908F907F906F9066
:1022C0005F904F903F902F901F900F900895629FC6
:1022D000D001739FF001829FE00DF11D649FE00D1E
:1022E000F11D929FF00D839FF00D749FF00D659F7F
:1022F000F00D9927729FB00DE11DF91F639FB00D7E
:10230000E11DF91FBD01CF0111240895991B79E04A
:1023100004C0991F961708F0961B881F7A95C9F775
:1023200080950895A1E21A2EAA1BBB1BFD010DC0CA
:10233000AA1FBB1FEE1FFF1FA217B307E407F50775
:1023400020F0A21BB30BE40BF50B661F771F881F51
:10235000991F1A9469F760957095809590959B01E7
:0C236000AC01BD01CF010895F894FFCF3F
:10236C003F065B4F666D7D277F6F777C395E797199
:10237C008040080102040810204080000001000287
:10238C000001000300010002000100040001000232
:10239C000001000300010002000100050001000221
:1023AC000001000300010002000100040001000212
:1023BC000001000300010002000100060001000200
:1023CC0000010003000100020001000400010002F2
:1023DC0000010003000100020001000500010002E1
:1023EC0000010003000100020001000400010002D2
:1023FC0000010003000100020001000700010002BF
:10240C0000010003000100020001000400010002B1
:10241C0000010003000100020001000500010002A0
:10242C000001000300010002000100040001000291
:10243C00000100030001000200010006000100027F
:10244C000001000300010002000100040001000271
:10245C000001000300010002000100050001000260
:10246C000001000300010002000100040001000251
:0C247C000001000300010002000100004C
:00000001FF
